:200000000C9463000C948B000C948B000C948B000C948B000C948B000C948B000C94CF0A62
:200020000C948B000C948B000C948B000C948B000C948B000C948B000C948B000C948B0068
:200040000C94850A0C948B000C94510B0C942B0B0C948B000C948B000C948B000C948B00C8
:200060000C94830B0C948B0000000000240027002A00000000002300260029000000000838
:2000800000020100000304070000000000000000010204081020408001020408102001020E
:2000A0000408102000000000250028002B0004040404040404040202020202020303030354
:2000C00003030200A20C11241FBECFEFD8E0DEBFCDBF13E0A0E0B1E0ECEDFFE202C00590A4
:2000E0000D92A63CB107D9F726E0A6ECB3E001C01D92A233B207E1F710E0C3E6D0E004C0E9
:200100002197FE010E94FF14C236D107C9F70E94630D0C94EC170C94000096E0899FD0011F
:200120001124AD55BA4F90967C936E935F9791E091969C939197E0911006F0911106909124
:200140000F06992339F0309751F0811108C08091BF050994309719F05C968C91FACF08958C
:2001600008950895833081F028F4813099F08230A9F008958730A9F08830C9F08430B1F4C9
:20018000809180008F7D03C0809180008F7780938000089584B58F7784BD089584B58F7DD6
:2001A000FBCF8091B0008F778093B00008958091B0008F7DF9CFCF93DF93282F30E0F90184
:2001C000E458FF4F8491F901E057FF4FD491F901E255FF4FC491CC23A1F081110E94B20062
:2001E000EC2FF0E0EE0FFF1FEE58FF4FA591B491EC91ED2381E090E009F480E0DF91CF915F
:20020000089580E090E0FACF1F93CF93DF93282F30E0F901E458FF4F8491F901E057FF4FA3
:20022000D491F901E255FF4FC491CC23A9F0162F81110E94B200EC2FF0E0EE0FFF1FEC558B
:20024000FF4FA591B4918FB7F894EC91111108C0D095DE23DC938FBFDF91CF911F9108955C
:20026000DE2BF8CFCF93DF9390E0FC01E057FF4F249182559F4FFC0184918823C9F090E088
:20028000880F991FFC01E859FF4FA591B491FC01EC55FF4FC591D49161110DC09FB7F894A0
:2002A0008C91209582238C938881282328839FBFDF91CF910895623051F49FB7F8943C9158
:2002C000822F809583238C93E8812E2BEFCF8FB7F894EC912E2B2C938FBFEACFCF92DF92D3
:2002E000EF92FF92CF936B0190911C01891749F09F3F09F44EC0CF91FF90EF90DF90CF90E2
:200300000895E2ECF0E0C491C7FDF5CF61E00E943201CC2319F0C23009F0E3C0F12CE12CFF
:2003200068E478EE81E090E0A70196010E94D514BA01A9014150510961097109CC2309F450
:2003400010C1C23009F09EC04F3F51056105710509F00CF4C4C064E274EF80E090E0A70125
:2003600096010E94D514BA01A901415051096109710995E08091B100887F892B8093B10071
:20038000C13009F4C6C0C23009F4D8C0C111B3CF94C080931C01E2ECF0E0C491CF3F09F48C
:2003A000AACFC13039F148F0C23009F445C0C7FDA2CF61E00E943201AECF14BC15BC94B5CB
:2003C000926094BD95B5916095BD282F30E0F901E255FF4FE491F0E0EE0FFF1FEC55FF4F78
:2003E00045915491F901E057FF4FE491E0937B04C0E08CCF1092800010928100909181007A
:2004000098609093810090918100916090938100282F30E0F901E255FF4FE491F0E0EE0FE1
:20042000FF1FEC55FF4F45915491F901E057FF4FE491E0937A046ACF1092B0001092B10091
:200440009091B00092609093B0009091B10091609093B100282F30E0F901E255FF4FE49114
:20046000F0E0EE0FFF1FEC55FF4F459154915093790440937804F901E057FF4FE491E09331
:20048000770444CF4F3F51056105710541F13CF162E17AE780E090E0A70196010E94D51471
:2004A000BA01A9014150510961097109C11162C094E085B5887F892B85BD47BD8FEF9FEF59
:2004C000DC018093840490938504A0938604B093870480916E00826080936E000CCF94E03C
:2004E00049CF960150E040E060E072E18AE790E00E94D514BA01A9014150510961097109CA
:20050000C13009F03DCF80918100887F81608093810050938900409388008FEF9FEFDC0127
:200520008093800490938104A0938204B093830480916F00826080936F00DDCE4093B300E4
:200540008FEF9FEFDC0180937C0490937D04A0937E04B0937F04809170008260809370001A
:20056000CACE93E04F3F51056105710511F00CF08FCF9FCF96E0FECE3FB7F89480916F049F
:2005800090917004A0917104B091720426B5A89B05C02F3F19F00196A11DB11D3FBFBA2F05
:2005A000A92F982F8827BC01CD01620F711D811D911D42E0660F771F881F991F4A95D1F7E4
:2005C00008958F929F92AF92BF92CF92DF92EF92FF924B015C010E94BC026B017C010E9422
:2005E000BC026C197D098E099F09683E734081059105A8F321E0821A9108A108B10888EED5
:20060000C80E83E0D81EE11CF11C81149104A104B10429F7FF90EF90DF90CF90BF90AF9093
:200620009F908F9008952FB7F89460916B0470916C0480916D0490916E042FBF08950F934A
:200640001F93CF93DF93C82FD62F86E0C89FF0011124ED55FA4F11A2878D90A1813091055B
:20066000F1F058F082309105F1F1039709F440C0DF91CF911F910F9108956623C9F361E04D
:2006800070E08C2F0E948D000E9413036093FB057093FC058093FD059093FE05E9CF0E94DC
:2006A00013030091FB051091FC052091FD053091FE05AB01BC01401B510B620B730B80915E
:2006C0000D0690910E06B0E0A0E084179507A607B70748F462E070E08C2FDF91CF911F9117
:2006E0000F910C948D0063E070E0D111C1CFF4CF70E060E0F1CF90911C0189130BC0E2ECA2
:20070000F0E0E4919FEF90931C01E13049F028F0E23061F060E00C94040110926E00FACF43
:2007200090916F009D7F90936F00F4CF909170009D7F9093700091E09093B0009091B10062
:20074000987F94609093B1001092B300E3CFAF92BF92CF92DF92EF92FF920F931F93CF9387
:20076000DF936C017B018B01040F151FEB015E01AE18BF08C017D10759F06991D601ED912C
:20078000FC910190F081E02DC6010995892B79F7C501DF91CF911F910F91FF90EF90DF90D1
:2007A000CF90BF90AF900895FC01538D448D252F30E0842F90E0821B930B541710F0CF966F
:2007C000089501970895FC01918D828D981761F0A28DAE0FBF2FB11D5D968C91928D9F5F48
:2007E0009F73928F90E008958FEF9FEF0895FC01918D828D981731F0828DE80FF11D858DF0
:2008000090E008958FEF9FEF0895FC01918D228D892F90E0805C9F4F821B91098F7399276D
:2008200008958AEF94E00E94050421E0892B09F420E0822F089580E090E0892B29F00E9444
:20084000110481110C9400000895FC01A48DA80FB92FB11DA35ABF4F2C91848D90E0019639
:200860008F739927848FA689B7892C93A089B1898C91837080648C93938D848D981306C05D
:200880000288F389E02D80818F7D80830895EF92FF920F931F93CF93DF93EC0181E0888FF9
:2008A0009B8D8C8D98131AC0E889F989808185FF15C09FB7F894EE89FF896083E889F9896E
:2008C00080818370806480839FBF81E090E0DF91CF911F910F91FF90EF900895F62E0B8D87
:2008E00010E00F5F1F4F0F731127E02E8C8D8E110CC00FB607FCFACFE889F989808185FFD7
:20090000F5CFCE010E942504F1CFEB8DEC0FFD2FF11DE35AFF4FF0829FB7F8940B8FEA8920
:20092000FB8980818062CFCFCF93DF93EC01888D8823B9F0AA89BB89E889F9898C9185FD7F
:2009400003C0808186FD0DC00FB607FCF7CF8C9185FFF2CF808185FFEDCFCE010E942504B8
:20096000E9CFDF91CF910895862F0C94DB00862F642F0C940401862F642F0C94320108957D
:200980002091E703260F3327331F21323105ECF42091D004FC0190E080E0243069F082E011
:2009A0000895A091E7032191AC0149535C4FA40FB52FB11D2C930196861798F38091E703FB
:2009C000680F6093E70380E0089581E008951092D00481E08093CF041092AA0461E082E117
:2009E0000E94040161E083E10E940401E9EBF0E080818E7F808380818D7F808388E48093C0
:200A0000B80085E48093BC00089510928904109288041092D7041092F9040E94E70480EBD8
:200A200090E0909376048093750481EB90E090937404809373040895CF93DF9391E0909317
:200A4000C6038823B9F0C091B800D091BA008091BC008A7B8093BC0060E082E10E9404016A
:200A600060E083E10E9404010E94E704D093BA00C093B800DF91CF9108958F929F92AF9276
:200A8000BF92CF92DF92EF92FF920F931F93CF93DF93D091F904D13208F0D7C0182FC09171
:200AA000F8040E94BC026B017C018091D00481116BC082E08093D0041093CF048FEF8093FF
:200AC000CE041092CD04D093CC04A8EDB4E0ECEAF4E080E0D81391C01092AB048091AB041E
:200AE000CC0FC82BC093AB048091AA04813009F088C01092AA040E94BC026B017C018091CB
:200B0000AB048093BB008091D2049091D304A091D404B091D504892B8A2B8B2BA1F00E9404
:200B2000BC020091D2041091D3042091D4043091D5046C197D098E099F0906171707280741
:200B4000390708F442C08091BC0083FDD8CF85EC8093BC000E94BC026B017C018091D004F5
:200B6000823009F450C08091CE048F3F09F46FC08091CE04803209F46CC08091CE04803385
:200B800009F469C084E026C08091D2049091D304A091D404B091D504892B8A2B8B2B09F4C7
:200BA00084CF0E94BC028090D2049090D304A090D404B090D5046C197D098E099F0986169E
:200BC0009706A806B90608F070CF8091D1040E941C0585E01092D7041092F9041092D6042E
:200BE000DF91CF911F910F91FF90EF90DF90CF90BF90AF909F908F9008959D9191938F5F40
:200C000069CF85EEA5CF8091D2049091D304A091D404B091D504892B8A2B8B2B09F49ECF2A
:200C20000E94BC020091D2041091D3042091D4043091D5046C197D098E099F0906171707CD
:200C40002807390708F08ACFC0CF81E0C3CF80E0C1CF82E0BFCF83E0BDCF0895E0918904E8
:200C600080918804E81730F4F0E0E657FB4F808190E008958FEF9FEF0895909189048091E7
:200C800088042FEF3FEF981748F4E92FF0E0E657FB4F208130E09F5F90938904C90108955C
:200CA0008091880490918904891B990B0895CF92DF92EF92FF920F931F93CF93DF937C017B
:200CC000CB018A012091D604222389F0EB016B01C40ED51ECC15DD0569F06991D701ED91EB
:200CE000FC910190F081E02DC7010995F3CF642F0E94C004C801DF91CF911F910F91FF90BF
:200D0000EF90DF90CF900895CF93DF931F92CDB7DEB769832091D6042223F9F02091F904F8
:200D2000203258F021E030E0FC013383228390E080E00F90DF91CF9108958091D704E82FD1
:200D4000F0E0E852FB4F998190838F5F8093D7048093F90481E090E0ECCF61E0CE010196F3
:200D60000E94C004F7CFFC01248131E03093D6042093F8041092D7041092F9048385682B91
:200D800087E995E00E94840681E00C943D0590E080E008956F927F928F929F92AF92BF929C
:200DA000CF92DF92EF92FF920F931F93CF93DF9381E080930F060E9413030091FF051091B0
:200DC00000062091010630910206AB01BC01401B510B620B730B80910B0690910C06B0E09C
:200DE000A0E084179507A607B70708F017C1C0E080910906C81760F4E0910506F091060605
:200E0000EC0FF11D62E080810E943201CF5FF0CF712C812C912C5401839480910A067816A2
:200E200008F05FC0072D10E0E0910706F0910806E00FF11F61E080810E943201E0910706D6
:200E4000F0910806E00FF11F60E080810E940401D501C401072C04C0880F991FAA1FBB1F98
:200E60000A94D2F76C017C01E094F094612C809109066816F8F4C62DD0E0E0910506F09172
:200E80000606EC0FFD1F80810E94DB002496CC0FDD1FCD55DA4F892B41F4888199818C2914
:200EA0009D29998388836394E2CF888199818E219F21F7CFE0910706F0910806E00FF11F39
:200EC00061E080810E9404018091070690910806080F191F60E0F80180810E943201739477
:200EE0009CCFC3EAD5E0FE018FEF2FEF3FEF478D50A1452B21F4848F368F258F11A2369607
:200F000095E0EF3DF90799F7F12C96E0D92E80910906F81608F050C0E12C0F2D10E0000F88
:200F2000111F05551A4F20910A06E21608F042C0F801608171810E2C02C0769567950A949E
:200F4000E2F7F29E900111242E0D311DE3EAF5E080E0458D568D2417350709F463C08F5F9D
:200F600036968A30B1F760FF23C0E3EAF5E090E080E0448D4F3FB9F4E0910306F09104067E
:200F8000E20FF31F4081D89EF001D99EF00D1124ED55FA4F448F368F258F10A2178E61E00E
:200FA0000E941F0305C0019636968A30910509F7E394B9CFF394ABCF10E089A18111182F02
:200FC0002696F5E0CF3DDF07C1F70E9413036093FF057093000680930106909302061123A5
:200FE000E9F08091C4058823C9F08091C2059091C305019799F48091BF0580936304DF9135
:20100000CF911F910F91FF90EF90DF90CF90BF90AF909F908F907F906F90089510920F0606
:201020008FEFEBCF6170BCCFCF92DF92EF92FF920F931F93CF9381E08093D60488E68093B3
:20104000F8041092D7041092F90460E087E995E00E94840681E00E943D05C82F8111F9C0A0
:201060000E94BC026B017C018091D004811165C081E08093D0048093CF049FEF9093CE04DA
:201080001092CD0497E09093CC048093AB048091AB04806D8093AB048091AA04813009F0D9
:2010A000E1C01092AA040E94BC026B017C018091AB048093BB008091D2049091D304A09158
:2010C000D404B091D504892B8A2B8B2BA1F00E94BC020091D2041091D3042091D4043091E5
:2010E000D5046C197D098E099F09061717072807390708F443C08091BC0083FDD8CF85ECBF
:201100008093BC000E94BC026B017C018091D004813009F4A9C08091CD04883008F0C6C0A3
:201120008091CD04ECEAF4E0AAE8B4E090E0981751F121912D939F5FFACF8091D20490915B
:20114000D304A091D404B091D504892B8A2B8B2B09F48ACF0E94BC020091D2041091D304E1
:201160002091D4043091D5046C197D098E099F09061717072807390708F076CF8091D10435
:201180000E941C0580E01092890480938804883009F05FC00EE116E087E995E00E943D06DF
:2011A000F80181938F01F6E006321F07A9F790911E06292F229527708AE09F70289F900DF6
:2011C00011249093160690911F06292F229527709F70289F900D1124909317069091200680
:2011E000292F229523709F70289F900D11249093180690912106292F22952F709F70289F98
:20120000900D11249093190690912206292F22952F709F70289F900D112490931A069091B7
:201220002306292F22952F709F70289F900D112490931B0690912406292F22952F709F70E3
:20124000289F900D112490931C068091250680931D068C2FCF911F910F91FF90EF90DF9056
:20126000CF90089585EE4CCF8091D2049091D304A091D404B091D504892B8A2B8B2B09F4C6
:2012800045CF0E94BC020091D2041091D3042091D4043091D5046C197D098E099F09061771
:2012A00017072807390708F031CF68CF88E03ACF0F931F93CF938C01C62F0E94B3066C2FD3
:2012C0006460C8010E94B3066C2F6B7FC8010E94B30683EC90E00197F1F7CF911F910F916E
:2012E00008950F931F93CF93DF938C01D62FC42F607F642B0E94580980E1D89FB001112475
:201300006C2BC801DF91CF911F910F910C94580940E0682F86E296E00C947109CF93DF93C9
:20132000CDB7DEB728970FB6F894DEBF0FBECDBF98E0EAE3F1E0DE01119601900D929A9593
:20134000E1F790912E06961710F46FEF690F70E0660F771F21E030E02C0F3D1F620F731FD3
:20136000FB019081890F806828960FB6F894DEBF0FBECDBFDF91CF910C94880981E00E94D7
:2013800088098BE39FE10197F1F70895E6E2F6E08681982F926096838A600C94880941E0FE
:2013A0000E94710981E090E00895FB0101900020E9F73197AF01461B570BDC01ED91FC91F3
:2013C0000280F381E02D09944F925F926F927F92EF92FF920F931F93CF93DF93CDB7DEB736
:2013E000A1970FB6F894DEBF0FBECDBF7C0170E090E080E019A28E010F5D1F4F2A01550F1E
:2014000066087708A30192010E94B314E62FCA01B901EA300CF5E05DD801EE938D01232B17
:20142000242B252B79F790E080E0109721F0C701BD010E94D509A1960FB6F894DEBF0FBE1D
:20144000CDBFDF91CF911F910F91FF90EF907F906F905F904F900895E95CDECFCF93DF9393
:20146000D0E0C0E0009731F0BC018AEF94E00E94D509EC016CE771E08AEF94E00E94D5093C
:201480008C0F9D1FDF91CF9108956115710511F00C94D50990E080E0089585ED8093BC006F
:2014A0008091D2049091D304A091D404B091D5040796A11DB11D23E0B695A795979587952F
:2014C0002A95D1F72091BC0024FD03C01092D00408954091D2045091D3046091D4047091F8
:2014E000D504452B462B472B69F30097A105B10541F02AE22A95F1F700C00197A109B109D1
:20150000E1CF8091D1040C941C051F920F920FB60F9211242F933F938F939F93AF93BF930B
:2015200080916B0490916C04A0916D04B0916E0430916A0423E0230F2D3758F50196A11DDB
:20154000B11D20936A0480936B0490936C04A0936D04B0936E0480916F0490917004A091E4
:201560007104B09172040196A11DB11D80936F0490937004A0937104B0937204BF91AF910E
:201580009F918F913F912F910F900FBE0F901F90189526E8230F0296A11DB11DD2CF1F924E
:2015A0000F920FB60F9211242F933F934F935F936F937F938F939F93AF93BF93EF93FF9377
:2015C00080917C0490917D04A0917E04B0917F04892B8A2B8B2BD1F190917704E0917804F7
:2015E000F091790480818927808380917C0490917D04A0917E04B0917F04181619061A0622
:201600001B069CF480917C0490917D04A0917E04B0917F040197A109B10980937C049093BD
:201620007D04A0937E04B0937F04FF91EF91BF91AF919F918F917F916F915F914F913F910E
:201640002F910F900FBE0F901F90189580911C010E947B03EACF1F920F920FB60F9211246F
:201660002F933F934F935F936F937F938F939F93AF93BF93EF93FF938AEF94E00E9425043A
:20168000FF91EF91BF91AF919F918F917F916F915F914F913F912F910F900FBE0F901F9030
:2016A00018951F920F920FB60F9211242F938F939F93EF93FF93E0910A05F0910B05808154
:2016C000E0911005F091110582FD1BC09081809113058F5F8F7320911405821741F0E09164
:2016E0001305F0E0E650FB4F958F80931305FF91EF919F918F912F910F900FBE0F901F9059
:2017000018958081F4CF1F920F920FB60F9211242F933F934F935F936F937F938F939F939B
:20172000AF93BF93EF93FF938091B900887F803609F44AC0F0F5883209F4A7C018F58031B2
:2017400009F49BC0B8F4882309F4F9C0883009F494C0FF91EF91BF91AF919F918F917F911B
:201760006F915F914F913F912F910F900FBE0F901F901895883109F488C0803251F7809397
:20178000CE0414C0803409F49DC040F48033B9F38833F9F68093CE0485ECB0C0803509F4E0
:2017A00085C0883509F496C0883499F60E944D0AD0CF883909F48CC038F5883729F050F49E
:2017C000883611F0803729F683E08093D0041092090457C0883809F47BC0803919F08038F2
:2017E00009F0B7CF80910904803208F071C0E091090481E08E0F809309048091BB00F0E039
:20180000E751FC4F80833DC0803B39F0E0F4803A09F479C0883A09F09CCF84E08093D0042C
:201820001092E8031092E703E0917504F091760409958091E70381110FC081E08093E70352
:201840001092C70309C0803C09F4A6CF883C09F4A3CF883B09F07DCFE091E80381E08E0F90
:201860008093E803F0E0E953FC4F80818093BB009091E8038091E70329C08091AB04809381
:20188000BB0085EC8093BC0064CF9091CD048091CC04981758F5E091CD0481E08E0F8093F8
:2018A000CD04F0E0E455FB4F8081E9CFE091CD0481E08E0F8093CD048091BB00F0E0E45552
:2018C000FB4F80839091CD048091CC049817C8F285E8D8CFE091CD0481E08E0F8093CD0447
:2018E0008091BB00F0E0E455FB4F80838091CF0481115CCF81E08093AA0484EA8093BC00C6
:201900001092D00426CF85EC8093BC001092D00480910904803230F4E0910904F0E0E7512C
:20192000FC4F10826091090470E0E0917304F091740489EE93E00995109209040ACF1092E9
:20194000CE0434CF1092FD041092FC0488EE93E0A0E0B0E08093FE049093FF04A093000501
:20196000B093010526E431E03093FB042093FA0425EC30E0309307052093060524EC30E0C2
:20198000309309052093080520EC30E030930B0520930A0521EC30E030930D0520930C054F
:2019A00022EC30E030930F0520930E0526EC30E03093110520931005109213051092140534
:2019C000109215051092160510929A051092990580939B0590939C05A0939D05B0939E05DB
:2019E00088E591E090939805809397058FEF8093A5051092A9051092A8051092AA058AE6FF
:201A000091E09093A4058093A305EFEBF5E08FEF8083148213821582369695E0EB3FF90771
:201A2000B9F781E291E090930606809305068DE191E0909308068093070685E0809309061E
:201A400084E080930A0686E291E090930406809303068AE090E090930C0680930B0684EF37
:201A600091E090930E0680930D0610921106109210061092FF05109200061092010610928E
:201A8000020610920F06109229061092280684E791E0909327068093260687E280932A06CF
:201AA00080E180932F0682E080933006109231060E941303609312067093130680931406ED
:201AC000909315060895CF93DF93CDB7DEB761970FB6F894DEBF0FBECDBF789484B58260D8
:201AE00084BD84B5816084BD85B5826085BD85B5816085BD80916E00816080936E0010920C
:201B0000810080918100826080938100809181008160809381008091800081608093800030
:201B20008091B10084608093B1008091B00081608093B00080917A00846080937A008091C9
:201B40007A00826080937A0080917A00816080937A0080917A00806880937A001092C10040
:201B600061E08BE00E9432016AE471E08BE00E946E0164EF71E080E090E00E94E1028BE065
:201B80000E947B0361E083E00E94320161E08DE00E94320160E083E00E9404016FEA70E036
:201BA00080E090E00E94E10261E083E00E940401E0910A05F0910B0582E08083E091060593
:201BC000F09107051082E0910805F091090580E1808310921205E0910E05F0910F0586E03D
:201BE0008083E0910C05F0910D05808180618083E0910C05F0910D05808188608083E09176
:201C00000C05F0910D05808180688083E0910C05F0910D0580818F7D80838FE791E00E9486
:201C20002E0A1F9284E08F9388EA91E09F938F939E012F5F3F4F79013F932F930E9414156A
:201C40006DEA71E08AEF94E00E94450AC7010E942E0A8DEC91E00E942E0A0E9405050F904D
:201C60000F900F900F900F900F9000E018E0DD24D394D092D6041093F8041092D70410920F
:201C8000F90481E00E943D05811125C067EE71E08AEF94E00E94450A4AE050E0612F8AEFA4
:201CA00094E00E94E40967EF71E08AEF94E00E94450A40E150E0612F8AEF94E00E94E4093F
:201CC0008CEF91E00E942E0A0F5F61E070E080E090E00E94E1021F5F183759F68EEF91E0E0
:201CE0000E942E0A64E072E08AEF94E00E94450A4AE050E0602F8AEF94E00E94E4098BE0C6
:201D000092E00E942E0A0E9405050E94050510922B0680913006823018F098E090932B067F
:201D200080932E0662E370E080E090E00E94E1026091310686E296E00E94B30668EE73E068
:201D400080E090E00E94E10260E386E296E00E9458090BE416E4C8010197F1F760E386E22D
:201D600096E00E945809C8010197F1F760E386E296E00E94580983E592E00197F1F760E2E1
:201D800086E296E00E94580980912B0680620E94880914E010932C068CE00E9488090E9401
:201DA000BE0982E080932D0686E00E94880982E00E9488098BE39FE10197F1F70E94C609A7
:201DC00088E08093310660E086E296E00E94B30660E080E00E948E0967E172E086E296E087
:201DE0000E94450A61E080E00E948E0966E272E086E296E00E94450A1F921F9382E392E075
:201E00009F938F93FF92EF920E941415B70186E296E00E94450A68E871E08BE00E946E01ED
:201E200067E771E080E090E00E94E1028BE00E947B036AE471E08BE00E946E016AEF70E05F
:201E400080E090E00E94E1028BE00E947B036AE471E08BE00E946E016DE770E080E090E013
:201E60000E94E1028BE00E947B0368EB71E08BE00E946E016AEF70E080E090E00E94E10234
:201E80008BE00E947B030E94BE0961E08DE00E9404010E9413036093120670931306809307
:201EA0001406909315066AE471E08BE00E946E016AEF70E080E090E00E94E1028BE00E94A4
:201EC0007B0366E271E08BE00E946E016AEF70E080E090E00E94E1028BE00E947B036AE498
:201EE00071E08BE00E946E0164EF71E080E090E00E94E1028BE00E947B036EEE71E08BE079
:201F00000E946E0167E771E080E090E00E94E1028BE00E947B030F900F900F900F900F9016
:201F20000F9090EC692E92E0792E01E01AE080916904843009F43FC270F5882309F462C09C
:201F4000833009F4DDC10E941303C0901206D0901306E0901406F09015066C197D098E09D3
:201F60009F09653F71408105910554F0809166048111E6C460E08DE00E94040100936604FC
:201F800020E030E0232B99F20E941104882369F20E940000CACF863009F4C5C208F462C206
:201FA000873089F60E94C6090E94BE0967E773E086E296E00E94450A00936504109264049B
:201FC00061E080E00E948E0966E171E086E296E00E94450A60916504809164040E948E09B4
:201FE0000E94CA0660916304653409F49EC36E3309F064C3809164048F5F8093640460918C
:202000006504ECCF80912C068D7F80932C0688600E9488090E94CA0680916304813409F055
:20202000CFC080916704882309F4C8C083E08093690464E670E080E090E00E94E102809182
:202040006804882309F4E4C00E941408F82E811128C1809116061F928F93809117061F928A
:202060008F93809118061F928F9387E392E09F938F932AE034E03F932F930E94141560E04F
:2020800080E00E948E096AE074E086E296E00E94450A61E080E00E948E096FE472E086E253
:2020A00096E00E94450A6EE474E086E296E00E94450A65E572E08AEF94E00E94450A8EE458
:2020C00094E00E942E0A0FB6F894DEBF0FBECDBF8091670461E0813009F0F5C08FE00E943E
:2020E0008E096EEB72E086E296E00E94450A80916804882309F4F9C00E941303C09057048E
:20210000D0905804E0905904F0905A04C616D706E806F906F0F40E941303645D7E4F8F4FAA
:202120009F4F60935704709358048093590490935A0480913C0461E08111CBC08EE00E9454
:202140008E0941E061E486E296E00E94710900933C0480916804882309F4F5CE0E94130315
:20216000C0905B04D0905C04E0905D04F0905E04C616D706E806F90608F0E5CE10926804DE
:202180000E9413039F938F937F936F937F926F922EE334E03F932F930E94141566EC72E0E5
:2021A0008AEF94E00E94450A8EE394E00E942E0A0FB6F894DEBF0FBECDBFC5CE87E037CF3B
:2021C000823439F480916704882309F432CF84E02ECF8A3239F480916704882309F429CF91
:2021E00085E025CF833239F480916704882309F420CF86E01CCF853609F01BCF8091670426
:20220000882319F01092670414CF0093670411CF0E941408F82E811144C080911C0690E01F
:202220008053984F9F938F9380911B061F928F9380911A061F928F9323E932E03F932F93D5
:20224000EAE0F4E0FF93EF930E94141560E080E00E948E096AE074E086E296E00E94450ABB
:20226000809116061F928F93809117061F928F93809118061F928F9387EA92E09F938F9324
:202280002AE034E03F932F930E94141561E080E00E948E096AE074E086E296E00E94450A7A
:2022A00012CF64E672E08AEF94E00E94450A40E150E06F2D8AEF94E00E94E40985E192E082
:2022C0000E942E0A05CF8FE00E948E096AE373E00ACF8EE00E948E096AE373E086E296E00A
:2022E0000E94450A10923C0434CF61E08EE00E948E096AE373E086E296E00E94450A29CFB9
:202300000E94C6090E94BE0962EE72E086E296E00E94450A009365041092640461E080E0CB
:202320000E948E096BE071E086E296E00E94450A009365041092640461E080E00E948E0919
:202340000E94CA0660916304653441F16E3341F4809164048F5F8093640460916504EECF19
:202360006C3321F4809164048150F5CF6A3040F74AE050E086E296E00E94E409809164048A
:20238000E82F082E000CFF0BE55FFE4F90916304905D90838F5F80936404D2CF60EF72E016
:2023A0008AEF94E00E94450A8BE091E00E942E0A10926904C8CD0E94C6090E94BE0969EFB3
:2023C00072E086E296E00E94450A009365041092640461E080E00E948E0960E071E086E203
:2023E00096E00E94450A009365041092640461E080E00E948E090E94CA0660916304653433
:2024000041F16E3341F4809164048F5F8093640460916504EECF6C3321F4809164048150BD
:20242000F5CF6A3040F74AE050E086E296E00E94E40980916404E82F082E000CFF0BE05034
:20244000FF4F90916304905D90838F5F80936404D2CF67E073E08AEF94E00E94450A80E0C4
:2024600091E0A4CF0E94C6090E94BE0960E173E086E296E00E94450A009365041092640435
:2024800061E080E00E948E090E94CA06F0906304F5E4FF1609F48CCF29E02F1598F1FF20CE
:2024A00021F088EF8F0D823090F580916404609165048E5F0E948E094AE050E06F2D86E26A
:2024C00096E00E94E40960E273E086E296E00E94450A60ED77E080E090E00E94E102809189
:2024E0006404609165048F5F0E948E096DE273E086E296E00E94450A6091650480916404AF
:202500000E948E096091650480916404BBCF4AE050E06F2D86E296E00E94E409809163044A
:2025200080933D04EFCF80916704813009F040CF80911301E0911401E051819FE00D112436
:2025400090910E0180910F018051482F919F400D112490910B0180910C018051582F919F5D
:20256000500D112480910001209101012051819F200D112480910301309104013051819F95
:20258000300D1124F0913D0490910601809107018051919F800D11248C3308F08BE3612F4E
:2025A0000E94A7148295807F890F90911E069078892B80931E06832F3C3308F08BE3612FC1
:2025C0000E94A7148295807F980F90931F06822F283108F087E1612F0E94A7148295807F2C
:2025E000980F90932006FF2309F466C0F83008F0F7E0F093210681E0552321F0852F5032E5
:2026000008F08FE1612F0E94A7148295807F980F9093220681E0442321F0842F4D3008F05C
:202620008CE0612F0E94A7148295807F980F909323068E2FE43608F083E6612F0E94A71413
:202640008295807F980F909324060093D60438E63093F8041092D7041092F90460E087E95A
:2026600095E00E9484068EE1E82E86E0F82EF70161917F0187E995E00E94840625E236E010
:202680002E153F05A1F781E00E943D05F82E83E693E0FF2009F48ACE6CE373E08AEF94E0D1
:2026A0000E94450A40E150E06F2D8AEF94E00E94E40985E192E07ACEF1E09BCF6C3321F4B1
:2026C00080916404815099CC6A3008F089CC4AE050E086E296E00E94E40990916404E92FFC
:2026E000092E000CFF0B20916304913051F09330C1F0911104C0298B81E0233040F480E09D
:2027000006C039893230D9F781E02430C0F3EA5EFE4F205D208381115DCC9F5F909364049E
:2027200059CC81E0263098F7EACF80911601082E000C990BC097189FA001199F500D11246E
:20274000052E000C660B770BC09017010C2C000CDD08C601C097092E000CAA0BBB0B6C016D
:202760007D01C40ED51EE61EF71E80911901082E000C990BC097189FA001199F500D1124F3
:20278000052E000C660B770B80901A01082C000C9908C401C097092E000CAA0BBB0B4C01D4
:2027A0005D01840E951EA61EB71EA0E1BEE0A70196010E94F4141B012C01ACE3B0E0A501C7
:2027C00094010E94F414A2019101260F371F481F591FA8EEB3E00E94F4141B012C0120924D
:2027E0005F043092600440926104509262040E941303260E371E481E591E20925B043092E0
:202800005C0440925D0450925E040E941303645D7E4F8F4F9F4F609357047093580480930F
:20282000590490935A048091180690E0C80ED91E8091170690E0880E991E88E1C816D10447
:2028400018F098E1C91AD108EDE38E16910430F0FCE38F1A91082FEFC21AD20A0E9414085D
:20286000809116061F928F939F928F92DF92CF9286E893E09F938F932EE434E03F932F9345
:202880000E94141500936804809162048F93809161048F93809160048F9380915F048F9310
:2028A0007F926F92EEE3F4E0FF93EF930E94141565E973E08AEF94E00E94450A6EE374E05E
:2028C0008AEF94E00E94450A0E9413039F938F937F936F937F926F928EE394E09F938F93AF
:2028E0000E94141560EA73E08AEF94E00E94450A6EE374E08AEF94E00E94450A80915E049C
:202900008F9380915D048F9380915C048F9380915B048F937F926F922EE334E03F932F9311
:202920000E9414150FB6F894DEBF0FBECDBF6EEA73E08AEF94E00E94450A8EE394E036CD14
:2029400061E08DE00E9404011092660419CB991B79E004C0991F961708F0961B881F7A959D
:20296000C9F780950895A1E21A2EAA1BBB1BFD010DC0AA1FBB1FEE1FFF1FA217B307E40788
:20298000F50720F0A21BB30BE40BF50B661F771F881F991F1A9469F7609570958095909505
:2029A0009B01AC01BD01CF010895052E97FB1EF400940E94EC1457FD07D00E94B31407FCFF
:2029C00003D04EF40C94EC1450954095309521953F4F4F4F5F4F0895909580957095619561
:2029E0007F4F8F4F9F4F08950E940515A59F900DB49F900DA49F800D911D11240895EE0FC6
:202A0000FF1F0590F491E02D0994A29FB001B39FC001A39F700D811D1124911DB29F700DC1
:202A2000811D1124911D0895AEE0B0E0EAE1F5E10C94C3170D891E8986E08C831A83098364
:202A40008FEF9FE79E838D83AE01475E5F4F6F89788DCE0101960E9437152F813885020F70
:202A6000131FF80110822E96E4E00C94DF17ABE0B0E0EDE3F5E10C94B5177C013B018A010A
:202A8000FC0117821682838181FFC8C1CE0101965C01F7019381F30193FD859193FF8191EE
:202AA0003F01882309F453C1853239F493FD859193FF81913F01853229F4B70190E00E940E
:202AC0002717E7CF912C212C312CFFE1F31538F08B3211F190F4803209F1833229F137FC9A
:202AE0003CC020ED280F2A3050F536FE20C08AE0989E200D1124922E06C08D3291F0803368
:202B000071F7689430F8F30193FD859193FF81913F018111DACF21C0689431F8689432F844
:202B2000F2CF689433F8EFCF689434F8ECCFEAE02E9E200D1124222E689435F8E4CF8E3228
:202B400029F436FC04C1689436F8DDCF8C3619F4689437F8D8CF8836B1F2982F9F7D9554BD
:202B60009330E0F08336A1F18337C1F1833509F063C02801F2E04F0E511CF801C080D180E8
:202B8000692D70E036FC02C06FEF7FEFC6010E9411174C01689437F882010AC00C5F1F4F60
:202BA000FFE3F98388248394912C6501E89437F833FE2DC0522C8114910471F5552009F488
:202BC00068CFB70180E290E00E9427175A94F6CFF801808189830E5F1F4FE4CF2801F2E012
:202BE0004F0E511CF801C080D180692D70E036FC02C06FEF7FEFC6010E941C174C0182016F
:202C0000D5CFB70180E290E00E9427172A942814190409F0B0F7CECFF60137FC859137FEDD
:202C200081916F01B70190E00E94271751105A94F1E08F1A9108BFCF843619F0893609F09F
:202C400077C0F80137FE6BC060817181828193810C5F1F4FF32DFF763F2E97FF09C090959B
:202C60008095709561957F4F8F4F9F4F689437F82AE030E0A5010E945717C82ECA188C2C1F
:202C8000432C36FE0CC0E89440F8C91440F434FE05C032FC03C0F32DFE7E4F2E892C44FE08
:202CA00095C0FE01EC0DF11D8081803309F087C0242D297E422E842D8870582E43FC95C09A
:202CC00040FE8FC09C2C821418F42C0C922C981844FE91C0B70180E390E00E94271742FE19
:202CE00009C088E790E041FE02C088E590E0B7010E942717C91408F48AC0CA94D12C9FEFAA
:202D0000C91AD90ACA0CDB1CF60182916F01B70190E00E942717AC14BD04B1F74FCF608176
:202D20007181072E000C880B990B0E5F1F4F92CFD32CE894D4F82AE030E0853739F1232D56
:202D4000297FD22E8F3601F148F48835A9F0F701868197812B96E2E10C94D117803749F06F
:202D60008837A9F7D4FE02C06894D2F820E130E00DC06894D4F8F6CF34FE03C0822F8660A3
:202D8000D82E20E132E002C028E030E0F801D7FE0FC060817181828193810C5F1F4FA5013A
:202DA0000E945717C82ECA183D2CE89437F867CF6081718190E080E00E5F1F4FF0CF42FC66
:202DC00002C0839478CF8394839475CF842D867809F471CFF6CFB70180E290E00E94271746
:202DE00083948214C0F3512C73CF522C5818821408F46ECFF8CF842D867809F47BCF8BE2CD
:202E000041FE80E247FC8DE2B70190E071CFB70180E390E00E9427179A946CCF8FEF9FEF17
:202E200099CFFC010590615070400110D8F7809590958E0F9F1F0895FC0161507040019036
:202E40000110D8F7809590958E0F9F1F08950F931F93CF93DF93182F092FEB018B8181FD43
:202E600009C01FEF0FEF812F902FDF91CF911F910F91089582FF14C02E813F818C819D8162
:202E8000281739073CF4E881F981CF0101969983888310838E819F8101969F838E83E3CFD4
:202EA000E885F985812F0995892BA1F3DACFFA01AA27283051F1203181F1E8946F936E7F54
:202EC0006E5F7F4F8F4F9F4FAF4FB1E03ED0B4E03CD0670F781F891F9A1FA11D680F791F13
:202EE0008A1F911DA11D6A0F711D811D911DA11D20D009F468943F912AE0269F11243019A6
:202F0000305D3193DEF6CF010895462F4770405D4193B3E00FD0C9F7F6CF462F4F70405DBA
:202F20004A3318F0495D31FD4052419302D0A9F7EACFB4E0A6959795879577956795BA9539
:202F4000C9F700976105710508959B01AC010A2E06945795479537952795BA95C9F7620FB6
:202F6000731F841F951FA01D08952F923F924F925F926F927F928F929F92AF92BF92CF9253
:202F8000DF92EF92FF920F931F93CF93DF93CDB7DEB7CA1BDB0B0FB6F894DEBF0FBECDBF5B
:202FA00009942A88398848885F846E847D848C849B84AA84B984C884DF80EE80FD800C819E
:202FC0001B81AA81B981CE0FD11D0FB6F894DEBF0FBECDBFED010895F894FFCF20203A205F
:202FE000203A000000000020202F20202F000000000020203A202000FF080902030A0706B3
:2030000005044142232A0102035E04050676070809653C003E45000040001400540000000A
:2030200000004704A703D40394040504E303F7030000000084065706C7062D0650063D06C3
:203040002E0600000000BB04B704B40400000000CF09A703C706BF040D0A005369737465D9
:203060006D6120646520646562756720646F20666F726E6F20656C65747269636F20736DC4
:20308000617274002530366400506C6163612073657269616C203230323330373233303066
:2030A000206275696C643A2000493243207363616E6E65722E205363616E6E696E67202EF1
:2030C0002E2E00466F756E6420616464726573733A200020283078002900446F6E652E006B
:2030E000466F756E642000206465766963652873292E00466F726E6F20456C657472696346
:203100006F003230323330373233303020002530346400486F726120253032753A253032D9
:20312000753A253032752020202000416C72202000686F7261446F416C61726D6520200016
:20314000556E61626C6520746F206765742063757272656E742074696D65206475652074D1
:203160006F20493243206572726F72203078002020202532752F253032752F25303475204C
:2031800020200020202020253032753A253032753A2530327520202020002A002530386C64
:2031A0006400416C61726D65207465726D696E6F7520206D696C6C697328293A20004469A4
:2031C000676974652061206461746100446174612E2E3A2000446967697465206120686F0D
:2031E000726100486F72612E2E3A2000446F6D2061205361623A312061203700206E616F44
:2032000020706F64652E2E2E00202020202020202020202020202000556E61626C652074B1
:203220006F207365742074696D652064756520746F20493243206572726F72203078005241
:20324000656C6F67696F20616365727461646F2E2E2E00446967697465206F2054656D7067
:203260006F00253032753A253032753A25303275006C616C61726D65733A20002020206DFF
:20328000696C6C697328293A20002020206C616C61726D65202B206D696C6C697328293AA8
:2032A0002000FFFFFFFFFFFFFFFFFFFFFFFFFFFFFFFFFFFFFFFFFFFFFFFFFFFFFFFFFFFF0C
:2032C000FFFFFFFFFFFFFFFFFFFFFFFFFFFFFFFFFFFFFFFFFFFFFFFFFFFFFFFFFFFFFFFF0E
:2032E000FFFFFFFFFFFFFFFFFFFFFFFFFFFFFFFFFFFFFFFFFFFFFFFFFFFFFFFFFFFFFFFFEE
:2033000032752F253034752020200020202020253032753A253032753A2530327520202031
:2033200020002A002530386C6400416C61726D65207465726D696E6F7520206D696C6C69AA
:203340007328293A20004469676974652061206461746100446174612E2E3A20004469677A
:20336000697465206120686F726100486F72612E2E3A2000446F6D2061205361623A31201E
:2033800061203700206E616F20706F64652E2E2E0020202020202020202020202020200005
:2033A000556E61626C6520746F207365742074696D652064756520746F2049324320657242
:2033C000726F722030780052656C6F67696F20616365727461646F2E2E2E00446967697423
:2033E00065206F2054656D706F00253032753A253032753A25303275006C616C61726D656E
:20340000733A20002020206D696C6C697328293A20002020206C616C61726D65202B206D34
:20342000696C6C697328293A2000FFFFFFFFFFFFFFFFFFFFFFFFFFFFFFFFFFFFFFFFFFFFDA
:20344000FFFFFFFFFFFFFFFFFFFFFFFFFFFFFFFFFFFFFFFFFFFFFFFFFFFFFFFFFFFFFFFF8C
:20346000FFFFFFFFFFFFFFFFFFFFFFFFFFFFFFFFFFFFFFFFFFFFFFFFFFFFFFFFFFFFFFFF6C
:203480007B0368E871E08BE00E946E0167E771E080E090E00E94E1028BE00E947B0366E2CA
:2034A00071E08BE00E946E0167E771E080E090E00E94E1028BE00E947B0368E871E08BE0B4
:2034C0000E946E0164EF71E080E090E00E94E1028BE00E947B0366E271E08BE00E946E0142
:2034E0006AEF70E080E090E00E94E1028BE00E947B0368E871E08BE00E946E016AEF70E07D
:2035000080E090E00E94E1028BE00E947B0366E271E08BE00E946E016AEF70E080E090E03D
:203520000E94E1028BE00E947B0368E871E08BE00E946E0167E771E080E090E00E94E1026A
:203540008BE00E947B0366E271E08BE00E946E0167E771E080E090E00E94E1028BE00E94CA
:203560007B0368E871E08BE00E946E0164EF71E080E090E00E94E1028BE00E947B0366E2E4
:2035800071E08BE00E946E016AEF70E080E090E00E94E1028BE00E947B0368E871E08BE0C9
:2035A0000E946E016AEF70E080E090E00E94E1028BE00E947B0366E271E08BE00E946E015C
:2035C0006AEF70E080E090E00E94E1028BE00E947B0368E871E08BE00E946E0167E771E0A6
:2035E00080E090E00E94E1028BE00E947B0366E271E08BE00E946E0167E771E080E090E067
:203600000E94E1028BE00E947B0368E871E08BE00E946E0164EF71E080E090E00E94E10284
:203620008BE00E947B0366E271E08BE00E946E016AEF70E080E090E00E94E1028BE00E94DF
:203640007B0368E871E08BE00E946E016AEF70E080E090E00E94E1028BE00E947B0366E2FE
:2036600071E08BE00E946E016AEF70E080E090E00E94E1028BE00E947B0368E871E08BE0E8
:203680000E946E0167E771E080E090E00E94E1028BE00E947B0366E271E08BE00E946E0185
:2036A00067E771E080E090E00E94E1028BE00E947B0368E871E08BE00E946E0164EF71E0CA
:2036C00080E090E00E94E1028BE00E947B0366E271E08BE00E946E016AEF70E080E090E07C
:2036E0000E94E1028BE00E947B0368E871E08BE00E946E016AEF70E080E090E00E94E1029F
:203700008BE00E947B0366E271E08BE00E946E016AEF70E080E090E00E94E1028BE00E94FE
:203720007B0368E871E08BE00E946E0167E771E080E090E00E94E1028BE00E947B0366E227
:2037400071E08BE00E946E0167E771E080E090E00E94E1028BE00E947B0368E871E08BE011
:203760000E946E0164EF71E080E090E00E94E1028BE00E947B0366E271E08BE00E946E019F
:203780006AEF70E080E090E00E94E1028BE00E947B0368E871E08BE00E946E016AEF70E0DA
:2037A00080E090E00E94E1028BE00E947B0366E271E08BE00E946E016AEF70E080E090E09B
:2037C0000E94E1028BE00E947B0368E871E08BE00E946E0167E771E080E090E00E94E102C8
:2037E0008BE00E947B0366E271E08BE00E946E0167E771E080E090E00E94E1028BE00E9428
:203800007B0368E871E08BE00E946E0164EF71E080E090E00E94E1028BE00E947B0366E241
:2038200071E08BE00E946E016AEF70E080E090E00E94E1028BE00E947B0368E871E08BE026
:203840000E946E016AEF70E080E090E00E94E1028BE00E947B0366E271E08BE00E946E01B9
:203860006AEF70E080E090E00E94E1028BE00E947B0368E871E08BE00E946E0167E771E003
:2038800080E090E00E94E1028BE00E947B0366E271E08BE00E946E0167E771E080E090E0C4
:2038A0000E94E1028BE00E947B0368E871E08BE00E946E0164EF71E080E090E00E94E102E2
:2038C0008BE00E947B0366E271E08BE00E946E016AEF70E080E090E00E94E1028BE00E943D
:2038E0007B0368E871E08BE00E946E016AEF70E080E090E00E94E1028BE00E947B0366E25C
:2039000071E08BE00E946E016AEF70E080E090E00E94E1028BE00E947B036AE471E08BE047
:203920000E946E0164EF71E080E090E00E94E1028BE00E947B0368E871E08BE00E946E01D5
:2039400067E771E080E090E00E94E1028BE00E947B036AE471E08BE00E946E016AEF70E024
:2039600080E090E00E94E1028BE00E947B036AE471E08BE00E946E016DE770E080E090E0D8
:203980000E94E1028BE00E947B0368EB71E08BE00E946E016AEF70E080E090E00E94E102F9
:2039A0008BE00E947B036AE471E08BE00E946E016AEF70E080E090E00E94E1028BE00E9456
:2039C0007B0366E271E08BE00E946E016AEF70E080E090E00E94E1028BE00E947B036AE47D
:2039E00071E08BE00E946E0164EF71E080E090E00E94E1028BE00E947B036EEE71E08BE05E
:203A00000E946E0167E771E080E090E00E94E1028BE00E947B036AE471E08BE00E946E01FB
:203A20006AEF70E080E090E00E94E1028BE00E947B036AE471E08BE00E946E016DE770E03E
:203A400080E090E00E94E1028BE00E947B036BE072E08BE00E946E016AEF70E080E090E0F4
:203A60000E94E1028BE00E947B036EEE71E08BE00E946E016AEF70E080E090E00E94E1020F
:203A80008BE00E947B0368E871E08BE00E946E016AEF70E080E090E00E94E1028BE00E9473
:203AA0007B036AE471E08BE00E946E016AEF70E080E090E00E94E1028BE00E947B036EEE88
:203AC00071E08BE00E946E016AEF70E080E090E00E94E1028BE00E947B0363E972E08BE087
:203AE0000E946E016AEF70E080E090E00E94E1028BE00E947B036AE471E08BE00E946E0111
:203B00006DE770E080E090E00E94E1028BE00E947B0366E271E08BE00E946E016AEF70E063
:203B200080E090E00E94E1028BE00E947B0366E271E08BE00E946E016DE770E080E090E01C
:203B40000E94E1028BE00E947B0367EF70E08BE00E946E016AEF70E080E090E00E94E10235
:203B60008BE00E947B0362E771E08BE00E946E016AEF70E080E090E00E94E1028BE00E9499
:203B80007B036AE471E08BE00E946E0164EF71E080E090E00E94E1028BE00E947B036AE4BA
:203BA00071E08BE00E946E0164EF71E080E090E00E94E1028BE00E947B0368E871E08BE0A8
:203BC0000E946E0167E771E080E090E00E94E1028BE00E947B036AE471E08BE00E946E013A
:203BE0006AEF70E080E090E00E94E1028BE00E947B036AE471E08BE00E946E016DE770E07D
:203C000080E090E00E94E1028BE00E947B0368EB71E08BE00E946E016AEF70E080E090E02B
:203C20000E94E1028BE00E947B036AE471E08BE00E946E016AEF70E080E090E00E94E1025B
:203C40008BE00E947B0366E271E08BE00E946E016AEF70E080E090E00E94E1028BE00E94B9
:203C60007B036AE471E08BE00E946E0164EF71E080E090E00E94E1028BE00E947B036EEECB
:203C800071E08BE00E946E0167E771E080E090E00E94E1028BE00E947B036AE471E08BE0CE
:203CA0000E946E016AEF70E080E090E00E94E1028BE00E947B036AE471E08BE00E946E014F
:203CC0006DE770E080E090E00E94E1028BE00E947B036BE072E08BE00E946E016AEF70E09E
:203CE00080E090E00E94E1028BE00E947B036EEE71E08BE00E946E016AEF70E080E090E042
:203D00000E94E1028BE00E947B0368E871E08BE00E946E016AEF70E080E090E00E94E10278
:203D20008BE00E947B036AE471E08BE00E946E016AEF70E080E090E00E94E1028BE00E94D2
:203D40007B036EEE71E08BE00E946E016AEF70E080E090E00E94E1028BE00E947B0363E9E7
:203D600072E08BE00E946E016AEF70E080E090E00E94E1028BE00E947B036AE471E08BE0E2
:203D80000E946E016DE770E080E090E00E94E1028BE00E947B0366E271E08BE00E946E0179
:203DA0006AEF70E080E090E00E94E1028BE00E947B0366E271E08BE00E946E016DE770E0C1
:203DC00080E090E00E94E1028BE00E947B0367EF70E08BE00E946E016AEF70E080E090E068
:203DE0000E94E1028BE00E947B0362E771E08BE00E946E016AEF70E080E090E00E94E1029F
:203E00008BE00E947B036AE471E08BE00E946E0164EF71E080E090E00E94E1028BE00E94F6
:203E20007B030F900F900F900F900F900F9090EC692E92E0792E01E01AE080916904843011
:203E400009F43FC270F5882309F462C0833009F4DDC10E941303C0901206D0901306E090DE
:203E60001406F09015066C197D098E099F09653F71408105910554F0809166048111E6C4D7
:203E800060E08DE00E9404010093660420E030E0232B99F20E941104882369F20E94000089
:203EA000CACF863009F4C5C208F462C2873089F60E94C6090E94BE0967E773E086E296E080
:203EC0000E94450A009365041092640461E080E00E948E0966E171E086E296E00E94450AAA
:203EE00060916504809164040E948E090E94CA0660916304653409F49EC36E3309F064C334
:203F0000809164048F5F8093640460916504ECCF80912C068D7F80932C0688600E948809FB
:203F20000E94CA0680916304813409F0CFC080916704882309F4C8C083E08093690464E681
:203F400070E080E090E00E94E10280916804882309F4E4C00E941408F82E811128C1809183
:203F600016061F928F93809117061F928F93809118061F928F9387E392E09F938F932AE015
:203F800034E03F932F930E949A2460E080E00E948E096AE074E086E296E00E94450A61E092
:203FA00080E00E948E096FE472E086E296E00E94450A6EE474E086E296E00E94450A65E535
:203FC00072E08AEF94E00E94450A8EE494E00E942E0A0FB6F894DEBF0FBECDBF809167042E
:203FE00061E0813009F0F5C08FE00E948E096EEB72E086E296E00E94450A809168048823D7
:2040000009F4F9C00E941303C0905704D0905804E0905904F0905A04C616D706E806F9067A
:20402000F0F40E941303645D7E4F8F4F9F4F60935704709358048093590490935A048091DB
:204040003C0461E08111CBC08EE00E948E0941E061E486E296E00E94710900933C048091D7
:204060006804882309F4F5CE0E941303C0905B04D0905C04E0905D04F0905E04C616D706D6
:20408000E806F90608F0E5CE109268040E9413039F938F937F936F937F926F922EE334E023
:2040A0003F932F930E949A2466EC72E08AEF94E00E94450A8EE394E00E942E0A0FB6F8947A
:2040C000DEBF0FBECDBFC5CE87E037CF823439F480916704882309F432CF84E02ECF8A32C5
:2040E00039F480916704882309F429CF85E025CF833239F480916704882309F420CF86E0C3
:204100001CCF853609F01BCF80916704882319F01092670414CF0093670411CF0E9414085A
:20412000F82E811144C080911C0690E08053984F9F938F9380911B061F928F9380911A06DC
:204140001F928F9323E932E03F932F93EAE0F4E0FF93EF930E949A2460E080E00E948E09EF
:204160006AE074E086E296E00E94450A809116061F928F93809117061F928F9380911806A2
:204180001F928F9387EA92E09F938F932AE034E03F932F930E949A2461E080E00E948E0929
:2041A0006AE074E086E296E00E94450A12CF64E672E08AEF94E00E94450A40E150E06F2D4A
:2041C0008AEF94E00E94E40985E192E00E942E0A05CF8FE00E948E096AE373E00ACF8EE04E
:2041E0000E948E096AE373E086E296E00E94450A10923C0434CF61E08EE00E948E096AE3FD
:2042000073E086E296E00E94450A29CF0E94C6090E94BE0962EE72E086E296E00E94450A39
:20422000009365041092640461E080E00E948E096BE071E086E296E00E94450A0093650437
:204240001092640461E080E00E948E090E94CA0660916304653441F16E3341F48091640496
:204260008F5F8093640460916504EECF6C3321F4809164048150F5CF6A3040F74AE050E0D1
:2042800086E296E00E94E40980916404E82F082E000CFF0BE55FFE4F90916304905D9083BC
:2042A0008F5F80936404D2CF60EF72E08AEF94E00E94450A8BE091E00E942E0A10926904B0
:2042C000C8CD0E94C6090E94BE0969EF72E086E296E00E94450A009365041092640461E0AF
:2042E00080E00E948E0960E071E086E296E00E94450A009365041092640461E080E00E947C
:204300008E090E94CA0660916304653441F16E3341F4809164048F5F80936404609165045F
:20432000EECF6C3321F4809164048150F5CF6A3040F74AE050E086E296E00E94E409809155
:204340006404E82F082E000CFF0BE050FF4F90916304905D90838F5F80936404D2CF67E03B
:2043600073E08AEF94E00E94450A80E091E0A4CF0E94C6090E94BE0960E173E086E296E07C
:204380000E94450A009365041092640461E080E00E948E090E94CA06F0906304F5E4FF1605
:2043A00009F48CCF29E02F1598F1FF2021F088EF8F0D823090F580916404609165048E5F95
:2043C0000E948E094AE050E06F2D86E296E00E94E40960E273E086E296E00E94450A60ED90
:2043E00077E080E090E00E94E10280916404609165048F5F0E948E096DE273E086E296E097
:204400000E94450A60916504809164040E948E096091650480916404BBCF4AE050E06F2D4C
:2044200086E296E00E94E4098091630480933D04EFCF80916704813009F040CF809113012B
:20444000E0911401E051819FE00D112490910E0180910F018051482F919F400D11249091F7
:204460000B0180910C018051582F919F500D112420910101205180910001819F200D112440
:2044800080910301309104013051819F300D1124F0913D0480910701805190910601919F2A
:2044A000800D11248C3308F08BE3612F0E942D248295807F890F90911E069078892B8093D0
:2044C0001E06832F3C3308F08BE3612F0E942D248295807F980F90931F06822F283108F0A7
:2044E00087E1612F0E942D248295807F980F90932006FF2309F466C0F83008F0F7E0F0930C
:20450000210681E0552321F0852F503208F08FE1612F0E942D248295807F980F9093220661
:2045200081E0442321F0842F4D3008F08CE0612F0E942D248295807F980F909323068E2FC5
:20454000E43608F083E6612F0E942D248295807F980F909324060093D60438E63093F80409
:204560001092D7041092F90460E087E995E00E9484068EE1E82E86E0F82EF70161917F0153
:2045800087E995E00E94840625E236E02E153F05A1F781E00E943D05F82E83E693E0FF2068
:2045A00009F48ACE6CE373E08AEF94E00E94450A40E150E06F2D8AEF94E00E94E40985E157
:2045C00092E07ACEF1E09BCF6C3321F480916404815099CC6A3008F089CC4AE050E086E2DA
:2045E00096E00E94E40990916404E92F092E000CFF0B20916304913051F09330C1F0911198
:2046000004C0298B81E0233040F480E006C039893230D9F781E02430C0F3EA5EFE4F205DA6
:20462000208381115DCC9F5F9093640459CC81E0263098F7EACF80911601082E000C990B61
:20464000C097189FA001199F500D1124052E000C660B770BC09017010C2C000CDD08C601D7
:20466000C097092E000CAA0BBB0B6C017D01C40ED51EE61EF71E80911901082E000C990B4B
:20468000C097189FA001199F500D1124052E000C660B770B80901A01082C000C9908C4011E
:2046A000C097092E000CAA0BBB0B4C015D01840E951EA61EB71EA0E1BEE0A70196010E945C
:2046C0007A241B012C01ACE3B0E0A50194010E947A24A2019101260F371F481F591FA8EE24
:2046E000B3E00E947A241B012C0120925F043092600440926104509262040E941303260EF8
:20470000371E481E591E20925B0430925C0440925D0450925E040E941303645D7E4F8F4F99
:204720009F4F60935704709358048093590490935A048091180690E0C80ED91E8091170653
:2047400090E0880E991E88E1C816D10418F098E1C91AD108EDE38E16910430F0FCE38F1A92
:2047600091082FEFC21AD20A0E941408809116061F928F939F928F92DF92CF9286E893E007
:204780009F938F932EE434E03F932F930E949A2400936804809162048F93809161048F937B
:2047A000809160048F9380915F048F937F926F92EEE3F4E0FF93EF930E949A2465E973E000
:2047C0008AEF94E00E94450A6EE374E08AEF94E00E94450A0E9413039F938F937F936F9358
:2047E0007F926F928EE394E09F938F930E949A2460EA73E08AEF94E00E94450A6EE374E0EE
:204800008AEF94E00E94450A80915E048F9380915D048F9380915C048F9380915B048F936C
:204820007F926F922EE334E03F932F930E949A240FB6F894DEBF0FBECDBF6EEA73E08AEFE2
:2048400094E00E94450A8EE394E036CD61E08DE00E9404011092660419CB991B79E004C0F5
:20486000991F961708F0961B881F7A95C9F780950895A1E21A2EAA1BBB1BFD010DC0AA1F08
:20488000BB1FEE1FFF1FA217B307E407F50720F0A21BB30BE40BF50B661F771F881F991FC5
:2048A0001A9469F760957095809590959B01AC01BD01CF010895052E97FB1EF400940E9435
:2048C000722457FD07D00E94392407FC03D04EF40C94722450954095309521953F4F4F4F69
:2048E0005F4F089590958095709561957F4F8F4F9F4F08950E948B24A59F900DB49F900DDF
:20490000A49F800D911D11240895EE0FFF1F0590F491E02D0994A29FB001B39FC001A39F21
:20492000700D811D1124911DB29F700D811D1124911D0895AEE0B0E0E0EAF4E20C944927BF
:204940000D891E8986E08C831A8309838FEF9FE79E838D83AE01475E5F4F6F89788DCE0179
:2049600001960E94BD242F813885020F131FF80110822E96E4E00C946527ABE0B0E0E3EC44
:20498000F4E20C943B277C013B018A01FC0117821682838181FFC8C1CE0101965C01F70105
:2049A0009381F30193FD859193FF81913F01882309F453C1853239F493FD859193FF81917B
:2049C0003F01853229F4B70190E00E94AD26E7CF912C212C312CFFE1F31538F08B3211F13A
:2049E00090F4803209F1833229F137FC3CC020ED280F2A3050F536FE20C08AE0989E200DC5
:204A00001124922E06C08D3291F0803371F7689430F8F30193FD859193FF81913F0181114C
:204A2000DACF21C0689431F8689432F8F2CF689433F8EFCF689434F8ECCFEAE02E9E200D55
:204A40001124222E689435F8E4CF8E3229F436FC04C1689436F8DDCF8C3619F4689437F851
:204A6000D8CF8836B1F2982F9F7D95549330E0F08336A1F18337C1F1833509F063C028011B
:204A8000F2E04F0E511CF801C080D180692D70E036FC02C06FEF7FEFC6010E9497264C01D7
:204AA000689437F882010AC00C5F1F4FFFE3F98388248394912C6501E89437F833FE2DC098
:204AC000522C8114910471F5552009F468CFB70180E290E00E94AD265A94F6CFF801808173
:204AE00089830E5F1F4FE4CF2801F2E04F0E511CF801C080D180692D70E036FC02C06FEF95
:204B00007FEFC6010E94A2264C018201D5CFB70180E290E00E94AD262A942814190409F073
:204B2000B0F7CECFF60137FC859137FE81916F01B70190E00E94AD2651105A94F1E08F1AD4
:204B40009108BFCF843619F0893609F077C0F80137FE6BC060817181828193810C5F1F4F60
:204B6000F32DFF763F2E97FF09C090958095709561957F4F8F4F9F4F689437F82AE030E0C0
:204B8000A5010E94DD26C82ECA188C2C432C36FE0CC0E89440F8C91440F434FE05C032FCE1
:204BA00003C0F32DFE7E4F2E892C44FE95C0FE01EC0DF11D8081803309F087C0242D297EDB
:204BC000422E842D8870582E43FC95C040FE8FC09C2C821418F42C0C922C981844FE91C072
:204BE000B70180E390E00E94AD2642FE09C088E790E041FE02C088E590E0B7010E94AD26C2
:204C0000C91408F48AC0CA94D12C9FEFC91AD90ACA0CDB1CF60182916F01B70190E00E94B1
:204C2000AD26AC14BD04B1F74FCF60817181072E000C880B990B0E5F1F4F92CFD32CE89458
:204C4000D4F82AE030E0853739F1232D297FD22E8F3601F148F48835A9F0F7018681978130
:204C60002B96E2E10C945727803749F08837A9F7D4FE02C06894D2F820E130E00DC068940F
:204C8000D4F8F6CF34FE03C0822F8660D82E20E132E002C028E030E0F801D7FE0FC0608186
:204CA0007181828193810C5F1F4FA5010E94DD26C82ECA183D2CE89437F867CF60817181D2
:204CC00090E080E00E5F1F4FF0CF42FC02C0839478CF8394839475CF842D867809F471CFAE
:204CE000F6CFB70180E290E00E94AD2683948214C0F3512C73CF522C5818821408F46ECF14
:204D0000F8CF842D867809F47BCF8BE241FE80E247FC8DE2B70190E071CFB70180E390E023
:204D20000E94AD269A946CCF8FEF9FEF99CFFC010590615070400110D8F7809590958E0F77
:204D40009F1F0895FC016150704001900110D8F7809590958E0F9F1F08950F931F93CF9341
:204D6000DF93182F092FEB018B8181FD09C01FEF0FEF812F902FDF91CF911F910F910895CB
:204D800082FF14C02E813F818C819D81281739073CF4E881F981CF01019699838883108371
:204DA0008E819F8101969F838E83E3CFE885F985812F0995892BA1F3DACFFA01AA272830FA
:204DC00051F1203181F1E8946F936E7F6E5F7F4F8F4F9F4FAF4FB1E03ED0B4E03CD0670F49
:204DE000781F891F9A1FA11D680F791F8A1F911DA11D6A0F711D811D911DA11D20D009F4DB
:204E000068943F912AE0269F11243019305D3193DEF6CF010895462F4770405D4193B3E0B7
:204E20000FD0C9F7F6CF462F4F70405D4A3318F0495D31FD4052419302D0A9F7EACFB4E0BF
:204E4000A6959795879577956795BA95C9F700976105710508959B01AC010A2E06945795A1
:204E6000479537952795BA95C9F7620F731F841F951FA01D08952F923F924F925F926F92A6
:204E80007F928F929F92AF92BF92CF92DF92EF92FF920F931F93CF93DF93CDB7DEB7CA1B13
:204EA000DB0B0FB6F894DEBF0FBECDBF09942A88398848885F846E847D848C849B84AA84B2
:204EC000B984C884DF80EE80FD800C811B81AA81B981CE0FD11D0FB6F894DEBF0FBECDBF5F
:204EE000ED010895F894FFCF20203A20203A000000000020202F20202F00000000002020BB
:204F00003A202000FF080902030A070605044142232A0102035E04050676070809653C0070
:204F20003E450000400014005400000000004704A703D40394040504E303F70300000000F9
:204F400084065706C7062D0650063D062E0600000000BB04B704B40400000000CF09A703E9
:204F6000C706BF040D0A0053697374656D6120646520646562756720646F20666F726E6F6D
:204F800020656C65747269636F20736D617274002530366400506C6163612073657269614F
:204FA0006C2032303233303732333030206275696C643A2000493243207363616E6E657220
:204FC0002E205363616E6E696E67202E2E2E00466F756E6420616464726573733A2000202C
:204FE000283078002900446F6E652E00466F756E642000206465766963652873292E004620
:205000006F726E6F20456C65747269636F0032303233303732333030200025303464004833
:205020006F726120253032753A253032753A253032752020202000416C72202000686F727E
:2050400061446F416C61726D65202000556E61626C6520746F206765742063757272656E41
:20506000742074696D652064756520746F20493243206572726F72203078002020202532E5
:20508000752F253032752F253034752020200020202020253032753A253032753A25303270
:2050A0007520202020002A002530386C6400416C61726D65207465726D696E6F7520206DE2
:2050C000696C6C697328293A20004469676974652061206461746100446174612E2E3A2047
:2050E00000446967697465206120686F726100486F72612E2E3A2000446F6D20612053615A
:20510000623A312061203700206E616F20706F64652E2E2E002020202020202020202020DA
:2051200020202000556E61626C6520746F207365742074696D652064756520746F2049327E
:2051400043206572726F722030780052656C6F67696F20616365727461646F2E2E2E0044F8
:205160006967697465206F2054656D706F00253032753A253032753A25303275006C616CC8
:2051800061726D65733A20002020206D696C6C697328293A20002020206C616C61726D65CA
:2051A000202B206D696C6C697328293A2000FFFFFFFFFFFFFFFFFFFFFFFFFFFFFFFFFFFF61
:2051C000FFFFFFFFFFFFFFFFFFFFFFFFFFFFFFFFFFFFFFFFFFFFFFFFFFFFFFFFFFFFFFFFEF
:2051E000FFFFFFFFFFFFFFFFFFFFFFFFFFFFFFFFFFFFFFFFFFFFFFFFFFFFFFFFFFFFFFFFCF
:20520000323330373233303020002530346400486F726120253032753A253032753A253085
:2052200032752020202000416C72202000686F7261446F416C61726D65202000556E616273
:205240006C6520746F206765742063757272656E742074696D652064756520746F2049322C
:2052600043206572726F72203078002020202532752F253032752F253034752020200020D5
:20528000202020253032753A253032753A2530327520202020002A002530386C6400416C92
:2052A00061726D65207465726D696E6F7520206D696C6C697328293A2000446967697465EB
:2052C0002061206461746100446174612E2E3A2000446967697465206120686F726100487A
:2052E0006F72612E2E3A2000446F6D2061205361623A312061203700206E616F20706F64DB
:20530000652E2E2E00202020202020202020202020202000556E61626C6520746F2073658C
:20532000742074696D652064756520746F20493243206572726F722030780052656C6F67E0
:20534000696F20616365727461646F2E2E2E00446967697465206F2054656D706F00253029
:2053600032753A253032753A25303275006C616C61726D65733A20002020206D696C6C69F8
:205380007328293A20002020206C616C61726D65202B206D696C6C697328293A2000FFFF13
:2053A000FFFFFFFFFFFFFFFFFFFFFFFFFFFFFFFFFFFFFFFFFFFFFFFFFFFFFFFFFFFFFFFF0D
:2053C000FFFFFFFFFFFFFFFFFFFFFFFFFFFFFFFFFFFFFFFFFFFFFFFFFFFFFFFFFFFFFFFFED
:2053E000FFFFFFFFFFFFFFFFFFFFFFFFFFFFFFFFFFFFFFFFFFFFFFFFFFFFFFFFFFFFFFFFCD
:20540000FFFFFFFFFFFFFFFFFFFFFFFFFFFFFFFFFFFFFFFFFFFFFFFFFFFFFFFFFFFFFFFFAC
:207E0000112484B714BE81FFF0D085E08093810082E08093C00088E18093C10086E08093FC
:207E2000C20080E18093C4008EE0C9D0259A86E020E33CEF91E0309385002093840096BBAD
:207E4000B09BFECF1D9AA8958150A9F7CC24DD2488248394B5E0AB2EA1E19A2EF3E0BF2E79
:207E6000A2D0813461F49FD0082FAFD0023811F0013811F484E001C083E08DD089C0823404
:207E800011F484E103C0853419F485E0A6D080C0853579F488D0E82EFF2485D0082F10E0A0
:207EA000102F00270E291F29000F111F8ED068016FC0863521F484E090D080E0DECF84364D
:207EC00009F040C070D06FD0082F6DD080E0C81680E7D80618F4F601B7BEE895C0E0D1E0ED
:207EE00062D089930C17E1F7F0E0CF16F0E7DF0618F0F601B7BEE89568D007B600FCFDCF1A
:207F0000A601A0E0B1E02C9130E011968C91119790E0982F8827822B932B1296FA010C016F
:207F200087BEE89511244E5F5F4FF1E0A038BF0751F7F601A7BEE89507B600FCFDCF97BE85
:207F4000E89526C08437B1F42ED02DD0F82E2BD03CD0F601EF2C8F010F5F1F4F84911BD0B8
:207F6000EA94F801C1F70894C11CD11CFA94CF0CD11C0EC0853739F428D08EE10CD085E9AE
:207F80000AD08FE07ACF813511F488E018D01DD080E101D065CF982F8091C00085FFFCCF0A
:207FA0009093C60008958091C00087FFFCCF8091C00084FD01C0A8958091C6000895E0E68F
:207FC000F0E098E1908380830895EDDF803219F088E0F5DFFFCF84E1DECF1F93182FE3DF47
:207FE0001150E9F7F2DF1F91089580E0E8DFEE27FF270994FFFFFFFFFFFFFFFFFFFF040425
:00000001FF
